{
  "contractName": "Wallet",
  "abi": [
    {
      "inputs": [
        {
          "internalType": "address[]",
          "name": "_approvers",
          "type": "address[]"
        },
        {
          "internalType": "uint256",
          "name": "_quorum",
          "type": "uint256"
        }
      ],
      "stateMutability": "nonpayable",
      "type": "constructor"
    },
    {
      "inputs": [
        {
          "internalType": "address",
          "name": "",
          "type": "address"
        },
        {
          "internalType": "uint256",
          "name": "",
          "type": "uint256"
        }
      ],
      "name": "approvals",
      "outputs": [
        {
          "internalType": "bool",
          "name": "",
          "type": "bool"
        }
      ],
      "stateMutability": "view",
      "type": "function"
    },
    {
      "inputs": [
        {
          "internalType": "uint256",
          "name": "",
          "type": "uint256"
        }
      ],
      "name": "approvers",
      "outputs": [
        {
          "internalType": "address",
          "name": "",
          "type": "address"
        }
      ],
      "stateMutability": "view",
      "type": "function"
    },
    {
      "inputs": [],
      "name": "quorum",
      "outputs": [
        {
          "internalType": "uint256",
          "name": "",
          "type": "uint256"
        }
      ],
      "stateMutability": "view",
      "type": "function"
    },
    {
      "inputs": [
        {
          "internalType": "uint256",
          "name": "",
          "type": "uint256"
        }
      ],
      "name": "transfers",
      "outputs": [
        {
          "internalType": "uint256",
          "name": "id",
          "type": "uint256"
        },
        {
          "internalType": "uint256",
          "name": "amount",
          "type": "uint256"
        },
        {
          "internalType": "address payable",
          "name": "to",
          "type": "address"
        },
        {
          "internalType": "uint256",
          "name": "approvers",
          "type": "uint256"
        },
        {
          "internalType": "bool",
          "name": "sent",
          "type": "bool"
        }
      ],
      "stateMutability": "view",
      "type": "function"
    },
    {
      "stateMutability": "payable",
      "type": "receive"
    },
    {
      "inputs": [],
      "name": "getApprovers",
      "outputs": [
        {
          "internalType": "address[]",
          "name": "",
          "type": "address[]"
        }
      ],
      "stateMutability": "view",
      "type": "function"
    },
    {
      "inputs": [],
      "name": "getTransfers",
      "outputs": [
        {
          "components": [
            {
              "internalType": "uint256",
              "name": "id",
              "type": "uint256"
            },
            {
              "internalType": "uint256",
              "name": "amount",
              "type": "uint256"
            },
            {
              "internalType": "address payable",
              "name": "to",
              "type": "address"
            },
            {
              "internalType": "uint256",
              "name": "approvers",
              "type": "uint256"
            },
            {
              "internalType": "bool",
              "name": "sent",
              "type": "bool"
            }
          ],
          "internalType": "struct Wallet.Transfer[]",
          "name": "",
          "type": "tuple[]"
        }
      ],
      "stateMutability": "view",
      "type": "function"
    },
    {
      "inputs": [
        {
          "internalType": "uint256",
          "name": "amount",
          "type": "uint256"
        },
        {
          "internalType": "address payable",
          "name": "to",
          "type": "address"
        }
      ],
      "name": "createTransfer",
      "outputs": [],
      "stateMutability": "nonpayable",
      "type": "function"
    },
    {
      "inputs": [
        {
          "internalType": "uint256",
          "name": "id",
          "type": "uint256"
        }
      ],
      "name": "approveTransfers",
      "outputs": [],
      "stateMutability": "nonpayable",
      "type": "function"
    }
  ],
  "bytecode": "0x60806040523480156200001157600080fd5b5060405162001366380380620013668339818101604052620000379190810190620001ef565b81600090805190602001906200004f9291906200005f565b5080600181905550505062000312565b828054828255906000526020600020908101928215620000db579160200282015b82811115620000da5782518260006101000a81548173ffffffffffffffffffffffffffffffffffffffff021916908373ffffffffffffffffffffffffffffffffffffffff1602179055509160200191906001019062000080565b5b509050620000ea9190620000ee565b5090565b6200013191905b808211156200012d57600081816101000a81549073ffffffffffffffffffffffffffffffffffffffff021916905550600101620000f5565b5090565b90565b6000815190506200014581620002de565b92915050565b600082601f8301126200015d57600080fd5b8151620001746200016e8262000277565b62000249565b915081818352602084019350602081019050838560208402820111156200019a57600080fd5b60005b83811015620001ce5781620001b3888262000134565b8452602084019350602083019250506001810190506200019d565b5050505092915050565b600081519050620001e981620002f8565b92915050565b600080604083850312156200020357600080fd5b600083015167ffffffffffffffff8111156200021e57600080fd5b6200022c858286016200014b565b92505060206200023f85828601620001d8565b9150509250929050565b6000604051905081810181811067ffffffffffffffff821117156200026d57600080fd5b8060405250919050565b600067ffffffffffffffff8211156200028f57600080fd5b602082029050602081019050919050565b6000620002ad82620002b4565b9050919050565b600073ffffffffffffffffffffffffffffffffffffffff82169050919050565b6000819050919050565b620002e981620002a0565b8114620002f557600080fd5b50565b6200030381620002d4565b81146200030f57600080fd5b50565b61104480620003226000396000f3fe60806040526004361061007f5760003560e01c80636cb3e8ef1161004e5780636cb3e8ef146101335780639377d7111461015e578063d3650fb81461019f578063ffabc673146101dc57610086565b80631703a0181461008b5780632f65142c146100b65780634c12fa47146100e157806364b711451461010a57610086565b3661008657005b600080fd5b34801561009757600080fd5b506100a0610219565b6040516100ad9190610e7e565b60405180910390f35b3480156100c257600080fd5b506100cb61021f565b6040516100d89190610de1565b60405180910390f35b3480156100ed57600080fd5b5061010860048036036101039190810190610a90565b61030d565b005b34801561011657600080fd5b50610131600480360361012c9190810190610a67565b6104e7565b005b34801561013f57600080fd5b50610148610883565b6040516101559190610dbf565b60405180910390f35b34801561016a57600080fd5b5061018560048036036101809190810190610a67565b610911565b604051610196959493929190610e99565b60405180910390f35b3480156101ab57600080fd5b506101c660048036036101c19190810190610a67565b610981565b6040516101d39190610da4565b60405180910390f35b3480156101e857600080fd5b5061020360048036036101fe9190810190610a2b565b6109bd565b6040516102109190610e03565b60405180910390f35b60015481565b60606002805480602002602001604051908101604052809291908181526020016000905b8282101561030457838290600052602060002090600502016040518060a001604052908160008201548152602001600182015481526020016002820160009054906101000a900473ffffffffffffffffffffffffffffffffffffffff1673ffffffffffffffffffffffffffffffffffffffff1673ffffffffffffffffffffffffffffffffffffffff168152602001600382015481526020016004820160009054906101000a900460ff16151515158152505081526020019060010190610243565b50505050905090565b600080905060008090505b6000805490508110156103a2573373ffffffffffffffffffffffffffffffffffffffff166000828154811061034957fe5b9060005260206000200160009054906101000a900473ffffffffffffffffffffffffffffffffffffffff1673ffffffffffffffffffffffffffffffffffffffff16141561039557600191505b8080600101915050610318565b5060011515811515146103ea576040517f08c379a00000000000000000000000000000000000000000000000000000000081526004016103e190610e1e565b60405180910390fd5b60026040518060a0016040528060028054905081526020018581526020018473ffffffffffffffffffffffffffffffffffffffff16815260200160008152602001600015158152509080600181540180825580915050600190039060005260206000209060050201600090919091909150600082015181600001556020820151816001015560408201518160020160006101000a81548173ffffffffffffffffffffffffffffffffffffffff021916908373ffffffffffffffffffffffffffffffffffffffff1602179055506060820151816003015560808201518160040160006101000a81548160ff0219169083151502179055505050505050565b600080905060008090505b60008054905081101561057c573373ffffffffffffffffffffffffffffffffffffffff166000828154811061052357fe5b9060005260206000200160009054906101000a900473ffffffffffffffffffffffffffffffffffffffff1673ffffffffffffffffffffffffffffffffffffffff16141561056f57600191505b80806001019150506104f2565b5060011515811515146105c4576040517f08c379a00000000000000000000000000000000000000000000000000000000081526004016105bb90610e1e565b60405180910390fd5b60001515600283815481106105d557fe5b906000526020600020906005020160040160009054906101000a900460ff16151514610636576040517f08c379a000000000000000000000000000000000000000000000000000000000815260040161062d90610e5e565b60405180910390fd5b60001515600360003373ffffffffffffffffffffffffffffffffffffffff1673ffffffffffffffffffffffffffffffffffffffff168152602001908152602001600020600084815260200190815260200160002060009054906101000a900460ff161515146106da576040517f08c379a00000000000000000000000000000000000000000000000000000000081526004016106d190610e3e565b60405180910390fd5b6001600360003373ffffffffffffffffffffffffffffffffffffffff1673ffffffffffffffffffffffffffffffffffffffff168152602001908152602001600020600084815260200190815260200160002060006101000a81548160ff0219169083151502179055506002828154811061075057fe5b9060005260206000209060050201600301600081548092919060010191905055506001546002838154811061078157fe5b9060005260206000209060050201600301541061087f576001600283815481106107a757fe5b906000526020600020906005020160040160006101000a81548160ff0219169083151502179055506000600283815481106107de57fe5b906000526020600020906005020160020160009054906101000a900473ffffffffffffffffffffffffffffffffffffffff16905060006002848154811061082157fe5b90600052602060002090600502016001015490508173ffffffffffffffffffffffffffffffffffffffff166108fc829081150290604051600060405180830381858888f1935050505015801561087b573d6000803e3d6000fd5b5050505b5050565b6060600080548060200260200160405190810160405280929190818152602001828054801561090757602002820191906000526020600020905b8160009054906101000a900473ffffffffffffffffffffffffffffffffffffffff1673ffffffffffffffffffffffffffffffffffffffff16815260200190600101908083116108bd575b5050505050905090565b6002818154811061091e57fe5b90600052602060002090600502016000915090508060000154908060010154908060020160009054906101000a900473ffffffffffffffffffffffffffffffffffffffff16908060030154908060040160009054906101000a900460ff16905085565b6000818154811061098e57fe5b906000526020600020016000915054906101000a900473ffffffffffffffffffffffffffffffffffffffff1681565b60036020528160005260406000206020528060005260406000206000915091509054906101000a900460ff1681565b6000813590506109fb81610fc9565b92915050565b600081359050610a1081610fe0565b92915050565b600081359050610a2581610ff7565b92915050565b60008060408385031215610a3e57600080fd5b6000610a4c858286016109ec565b9250506020610a5d85828601610a16565b9150509250929050565b600060208284031215610a7957600080fd5b6000610a8784828501610a16565b91505092915050565b60008060408385031215610aa357600080fd5b6000610ab185828601610a16565b9250506020610ac285828601610a01565b9150509250929050565b6000610ad88383610b1a565b60208301905092915050565b6000610af08383610d1e565b60a08301905092915050565b610b0581610f81565b82525050565b610b1481610f81565b82525050565b610b2381610f6f565b82525050565b610b3281610f6f565b82525050565b6000610b4382610f0c565b610b4d8185610f3c565b9350610b5883610eec565b8060005b83811015610b89578151610b708882610acc565b9750610b7b83610f22565b925050600181019050610b5c565b5085935050505092915050565b6000610ba182610f17565b610bab8185610f4d565b9350610bb683610efc565b8060005b83811015610be7578151610bce8882610ae4565b9750610bd983610f2f565b925050600181019050610bba565b5085935050505092915050565b610bfd81610f93565b82525050565b610c0c81610f93565b82525050565b6000610c1f601483610f5e565b91507f4f6e6c79206170706f76657220616c6c6f7765640000000000000000000000006000830152602082019050919050565b6000610c5f602783610f5e565b91507f796f752063616e206e6f7420617070726f76652074686973207472616e73666560008301527f72207477696365000000000000000000000000000000000000000000000000006020830152604082019050919050565b6000610cc5602883610f5e565b91507f5472616e736665722077617320616c726561647920617070726f766520666f7260008301527f20746869732069640000000000000000000000000000000000000000000000006020830152604082019050919050565b60a082016000820151610d346000850182610d86565b506020820151610d476020850182610d86565b506040820151610d5a6040850182610afc565b506060820151610d6d6060850182610d86565b506080820151610d806080850182610bf4565b50505050565b610d8f81610fbf565b82525050565b610d9e81610fbf565b82525050565b6000602082019050610db96000830184610b29565b92915050565b60006020820190508181036000830152610dd98184610b38565b905092915050565b60006020820190508181036000830152610dfb8184610b96565b905092915050565b6000602082019050610e186000830184610c03565b92915050565b60006020820190508181036000830152610e3781610c12565b9050919050565b60006020820190508181036000830152610e5781610c52565b9050919050565b60006020820190508181036000830152610e7781610cb8565b9050919050565b6000602082019050610e936000830184610d95565b92915050565b600060a082019050610eae6000830188610d95565b610ebb6020830187610d95565b610ec86040830186610b0b565b610ed56060830185610d95565b610ee26080830184610c03565b9695505050505050565b6000819050602082019050919050565b6000819050602082019050919050565b600081519050919050565b600081519050919050565b6000602082019050919050565b6000602082019050919050565b600082825260208201905092915050565b600082825260208201905092915050565b600082825260208201905092915050565b6000610f7a82610f9f565b9050919050565b6000610f8c82610f9f565b9050919050565b60008115159050919050565b600073ffffffffffffffffffffffffffffffffffffffff82169050919050565b6000819050919050565b610fd281610f6f565b8114610fdd57600080fd5b50565b610fe981610f81565b8114610ff457600080fd5b50565b61100081610fbf565b811461100b57600080fd5b5056fea2646970667358221220f5bf1886814240ce17f63557170e2e3745982349c3da65dbe350b329816a199064736f6c63430006000033",
  "source": "// pragma solidity ^0.6.0;\npragma solidity >=0.4.22 <0.9.0;\npragma experimental ABIEncoderV2;\n\ncontract Wallet {\n    address[] public approvers;\n    uint256 public quorum;\n\n    struct Transfer {\n        uint256 id;\n        uint256 amount;\n        address payable to;\n        uint256 approvers;\n        bool sent;\n    }\n\n    Transfer[] public transfers;\n    mapping(address => mapping(uint256 => bool)) public approvals;\n\n    constructor(address[] memory _approvers, uint256 _quorum) public {\n        approvers = _approvers;\n        quorum = _quorum;\n    }\n\n    function getApprovers() external view returns (address[] memory) {\n        return approvers;\n    }\n\n    function getTransfers() external view returns (Transfer[] memory) {\n        return transfers;\n    }\n\n    function createTransfer(uint256 amount, address payable to) external onlyApproval {\n        transfers.push(Transfer(transfers.length, amount, to, 0, false));\n    }\n\n    function approveTransfers(uint256 id) external onlyApproval {\n        require(transfers[id].sent == false, 'Transfer was already approve for this id');\n        require(approvals[msg.sender][id] == false, 'you can not approve this transfer twice');\n\n        approvals[msg.sender][id] = true;\n        transfers[id].approvers++;\n\n        if (transfers[id].approvers >= quorum) {\n            transfers[id].sent = true;\n            address payable to = transfers[id].to;\n            uint256 amount = transfers[id].amount;\n            to.transfer(amount);\n        }\n    }\n\n    receive() external payable {}\n\n    modifier onlyApproval() {\n        bool allowed = false;\n        for (uint256 i = 0; i < approvers.length; i++) {\n            if (approvers[i] == msg.sender) {\n                allowed = true;\n            }\n        }\n        require(allowed == true, 'Only appover allowed');\n        _;\n    }\n}\n",
  "sourcePath": "/Users/sorinchis/Documents/PROJECTS/multisigwallet/contracts/Wallet.sol",
  "compiler": {
    "name": "solc",
    "version": "0.6.0+commit.26b70077.Emscripten.clang"
  },
  "schemaVersion": "3.4.3",
  "updatedAt": "2021-10-11T09:42:48.002Z",
  "devdoc": {
    "methods": {}
  },
  "userdoc": {
    "methods": {}
  }
}